S01900004763634170706C69636174696F6E3136322E73726563F1
S11300000C942A000C943C000C943C000C943C008E
S11300100C943C000C943C000C943C000C943C006C
S11300200C943C000C943C000C943C000C943C005C
S11300300C943C000C9453000C943C000C943C0035
S11300400C943C000C943C000C943C000C943C003C
S11300500C943C0011241FBECFE5D8E0DEBFCDBF19
S113006020E0A0E6B0E001C01D92A636B207E1F799
S11300700E947A000C94E7000C94000090BD89B9AA
S11300801BB88AB188618AB9579A86E880BD0895F9
S113009082E68CB98FEC97E00197F1F700C000007D
S11300A084E68CB908951F920F920FB60F92112413
S11300B08F938CB180936500813629F0823649F0A4
S11300C0833591F40CC081E08093640080936200D6
S11300D00BC081E0809363008093620005C081E0DF
S11300E080936100809360008F910F900FBE0F90FA
S11300F01F9018958FEF8ABB87BB14BAD89AC09A01
S113010083E390E00E943E000E9448007894CFEF81
S11301100F2EF3E6FF2EF02D01E614E6D2E68FEC67
S113012097E00197F1F700C00000809160008823F8
S113013051F0CABBC7BB14BAD89AC09AC1980E94DE
S11301404800109260008FEC97E00197F1F700C02F
S1130150000080916200882311F380916400882359
S1130160B9F0D898D99AC0988FEC97E00197F1F735
S113017000C00000989B0CB98FEC97E00197F1F751
S113018000C00000999B02C0C19AFCB810926400A0
S1130190809163008823C1F0C09AC198D89AD998F5
S11301A08FEC97E00197F1F700C000009899DCB953
S11301B08FEC97E00197F1F700C00000999902C015
S11301C0C1981CB91092630010926200A8CFF894F1
S10501D0FFCF5B
S9030000FC
